{
	"contracts/1_Storage.sol": {
		"FinanceControl": {
			"abi": [
				{
					"inputs": [],
					"stateMutability": "nonpayable",
					"type": "constructor"
				},
				{
					"inputs": [],
					"name": "owner",
					"outputs": [
						{
							"internalType": "address",
							"name": "",
							"type": "address"
						}
					],
					"stateMutability": "view",
					"type": "function"
				},
				{
					"inputs": [],
					"name": "pay",
					"outputs": [],
					"stateMutability": "payable",
					"type": "function"
				},
				{
					"inputs": [
						{
							"internalType": "address",
							"name": "",
							"type": "address"
						}
					],
					"name": "payments",
					"outputs": [
						{
							"internalType": "uint256",
							"name": "",
							"type": "uint256"
						}
					],
					"stateMutability": "view",
					"type": "function"
				},
				{
					"inputs": [
						{
							"internalType": "address payable",
							"name": "_to",
							"type": "address"
						},
						{
							"internalType": "uint256",
							"name": "_amount",
							"type": "uint256"
						}
					],
					"name": "withdrawAll",
					"outputs": [],
					"stateMutability": "nonpayable",
					"type": "function"
				}
			],
			"devdoc": {
				"kind": "dev",
				"methods": {},
				"version": 1
			},
			"evm": {
				"assembly": "    /* \"contracts/1_Storage.sol\":70:610  contract FinanceControl {... */\n  mstore(0x40, 0x80)\n    /* \"contracts/1_Storage.sol\":174:223  constructor() {... */\n  callvalue\n  dup1\n  iszero\n  tag_1\n  jumpi\n  0x00\n  dup1\n  revert\ntag_1:\n  pop\n    /* \"contracts/1_Storage.sol\":206:216  msg.sender */\n  caller\n    /* \"contracts/1_Storage.sol\":198:203  owner */\n  0x00\n  dup1\n    /* \"contracts/1_Storage.sol\":198:216  owner = msg.sender */\n  0x0100\n  exp\n  dup2\n  sload\n  dup2\n  0xffffffffffffffffffffffffffffffffffffffff\n  mul\n  not\n  and\n  swap1\n  dup4\n  0xffffffffffffffffffffffffffffffffffffffff\n  and\n  mul\n  or\n  swap1\n  sstore\n  pop\n    /* \"contracts/1_Storage.sol\":70:610  contract FinanceControl {... */\n  dataSize(sub_0)\n  dup1\n  dataOffset(sub_0)\n  0x00\n  codecopy\n  0x00\n  return\nstop\n\nsub_0: assembly {\n        /* \"contracts/1_Storage.sol\":70:610  contract FinanceControl {... */\n      mstore(0x40, 0x80)\n      jumpi(tag_1, lt(calldatasize, 0x04))\n      shr(0xe0, calldataload(0x00))\n      dup1\n      0x1b9265b8\n      eq\n      tag_2\n      jumpi\n      dup1\n      0x8da5cb5b\n      eq\n      tag_3\n      jumpi\n      dup1\n      0xcc6dbc27\n      eq\n      tag_4\n      jumpi\n      dup1\n      0xe2982c21\n      eq\n      tag_5\n      jumpi\n    tag_1:\n      0x00\n      dup1\n      revert\n        /* \"contracts/1_Storage.sol\":229:308  function pay() public payable {... */\n    tag_2:\n      tag_6\n      tag_7\n      jump\t// in\n    tag_6:\n      stop\n        /* \"contracts/1_Storage.sol\":100:120  address public owner */\n    tag_3:\n      callvalue\n      dup1\n      iszero\n      tag_8\n      jumpi\n      0x00\n      dup1\n      revert\n    tag_8:\n      pop\n      tag_9\n      tag_10\n      jump\t// in\n    tag_9:\n      mload(0x40)\n      tag_11\n      swap2\n      swap1\n      tag_12\n      jump\t// in\n    tag_11:\n      mload(0x40)\n      dup1\n      swap2\n      sub\n      swap1\n      return\n        /* \"contracts/1_Storage.sol\":314:606  function withdrawAll(address payable _to, uint _amount) public {... */\n    tag_4:\n      callvalue\n      dup1\n      iszero\n      tag_13\n      jumpi\n      0x00\n      dup1\n      revert\n    tag_13:\n      pop\n      tag_14\n      0x04\n      dup1\n      calldatasize\n      sub\n      dup2\n      add\n      swap1\n      tag_15\n      swap2\n      swap1\n      tag_16\n      jump\t// in\n    tag_15:\n      tag_17\n      jump\t// in\n    tag_14:\n      stop\n        /* \"contracts/1_Storage.sol\":126:167  mapping (address => uint) public payments */\n    tag_5:\n      callvalue\n      dup1\n      iszero\n      tag_18\n      jumpi\n      0x00\n      dup1\n      revert\n    tag_18:\n      pop\n      tag_19\n      0x04\n      dup1\n      calldatasize\n      sub\n      dup2\n      add\n      swap1\n      tag_20\n      swap2\n      swap1\n      tag_21\n      jump\t// in\n    tag_20:\n      tag_22\n      jump\t// in\n    tag_19:\n      mload(0x40)\n      tag_23\n      swap2\n      swap1\n      tag_24\n      jump\t// in\n    tag_23:\n      mload(0x40)\n      dup1\n      swap2\n      sub\n      swap1\n      return\n        /* \"contracts/1_Storage.sol\":229:308  function pay() public payable {... */\n    tag_7:\n        /* \"contracts/1_Storage.sol\":292:301  msg.value */\n      callvalue\n        /* \"contracts/1_Storage.sol\":269:277  payments */\n      0x01\n        /* \"contracts/1_Storage.sol\":269:289  payments[msg.sender] */\n      0x00\n        /* \"contracts/1_Storage.sol\":278:288  msg.sender */\n      caller\n        /* \"contracts/1_Storage.sol\":269:289  payments[msg.sender] */\n      0xffffffffffffffffffffffffffffffffffffffff\n      and\n      0xffffffffffffffffffffffffffffffffffffffff\n      and\n      dup2\n      mstore\n      0x20\n      add\n      swap1\n      dup2\n      mstore\n      0x20\n      add\n      0x00\n      keccak256\n        /* \"contracts/1_Storage.sol\":269:301  payments[msg.sender] = msg.value */\n      dup2\n      swap1\n      sstore\n      pop\n        /* \"contracts/1_Storage.sol\":229:308  function pay() public payable {... */\n      jump\t// out\n        /* \"contracts/1_Storage.sol\":100:120  address public owner */\n    tag_10:\n      0x00\n      dup1\n      sload\n      swap1\n      0x0100\n      exp\n      swap1\n      div\n      0xffffffffffffffffffffffffffffffffffffffff\n      and\n      dup2\n      jump\t// out\n        /* \"contracts/1_Storage.sol\":314:606  function withdrawAll(address payable _to, uint _amount) public {... */\n    tag_17:\n        /* \"contracts/1_Storage.sol\":405:406  0 */\n      0x00\n        /* \"contracts/1_Storage.sol\":395:402  _amount */\n      dup2\n        /* \"contracts/1_Storage.sol\":395:406  _amount > 0 */\n      gt\n        /* \"contracts/1_Storage.sol\":387:430  require(_amount > 0, \"_amount must be > 0\") */\n      tag_27\n      jumpi\n      mload(0x40)\n      0x08c379a000000000000000000000000000000000000000000000000000000000\n      dup2\n      mstore\n      0x04\n      add\n      tag_28\n      swap1\n      tag_29\n      jump\t// in\n    tag_28:\n      mload(0x40)\n      dup1\n      swap2\n      sub\n      swap1\n      revert\n    tag_27:\n        /* \"contracts/1_Storage.sol\":463:464  0 */\n      0x00\n        /* \"contracts/1_Storage.sol\":448:465  _to != address(0) */\n      0xffffffffffffffffffffffffffffffffffffffff\n      and\n        /* \"contracts/1_Storage.sol\":448:451  _to */\n      dup3\n        /* \"contracts/1_Storage.sol\":448:465  _to != address(0) */\n      0xffffffffffffffffffffffffffffffffffffffff\n      and\n      sub\n        /* \"contracts/1_Storage.sol\":440:495  require(_to != address(0), \"to must be a real address\") */\n      tag_30\n      jumpi\n      mload(0x40)\n      0x08c379a000000000000000000000000000000000000000000000000000000000\n      dup2\n      mstore\n      0x04\n      add\n      tag_31\n      swap1\n      tag_32\n      jump\t// in\n    tag_31:\n      mload(0x40)\n      dup1\n      swap2\n      sub\n      swap1\n      revert\n    tag_30:\n        /* \"contracts/1_Storage.sol\":578:581  _to */\n      dup2\n        /* \"contracts/1_Storage.sol\":578:590  _to.transfer */\n      0xffffffffffffffffffffffffffffffffffffffff\n      and\n        /* \"contracts/1_Storage.sol\":578:599  _to.transfer(_amount) */\n      0x08fc\n        /* \"contracts/1_Storage.sol\":591:598  _amount */\n      dup3\n        /* \"contracts/1_Storage.sol\":578:599  _to.transfer(_amount) */\n      swap1\n      dup2\n      iszero\n      mul\n      swap1\n      mload(0x40)\n      0x00\n      mload(0x40)\n      dup1\n      dup4\n      sub\n      dup2\n      dup6\n      dup9\n      dup9\n      call\n      swap4\n      pop\n      pop\n      pop\n      pop\n      iszero\n      dup1\n      iszero\n      tag_34\n      jumpi\n      returndatasize\n      0x00\n      dup1\n      returndatacopy\n      revert(0x00, returndatasize)\n    tag_34:\n      pop\n        /* \"contracts/1_Storage.sol\":314:606  function withdrawAll(address payable _to, uint _amount) public {... */\n      pop\n      pop\n      jump\t// out\n        /* \"contracts/1_Storage.sol\":126:167  mapping (address => uint) public payments */\n    tag_22:\n      mstore(0x20, 0x01)\n      dup1\n      0x00\n      mstore\n      keccak256(0x00, 0x40)\n      0x00\n      swap2\n      pop\n      swap1\n      pop\n      sload\n      dup2\n      jump\t// out\n        /* \"#utility.yul\":7:133   */\n    tag_35:\n        /* \"#utility.yul\":44:51   */\n      0x00\n        /* \"#utility.yul\":84:126   */\n      0xffffffffffffffffffffffffffffffffffffffff\n        /* \"#utility.yul\":77:82   */\n      dup3\n        /* \"#utility.yul\":73:127   */\n      and\n        /* \"#utility.yul\":62:127   */\n      swap1\n      pop\n        /* \"#utility.yul\":7:133   */\n      swap2\n      swap1\n      pop\n      jump\t// out\n        /* \"#utility.yul\":139:235   */\n    tag_36:\n        /* \"#utility.yul\":176:183   */\n      0x00\n        /* \"#utility.yul\":205:229   */\n      tag_58\n        /* \"#utility.yul\":223:228   */\n      dup3\n        /* \"#utility.yul\":205:229   */\n      tag_35\n      jump\t// in\n    tag_58:\n        /* \"#utility.yul\":194:229   */\n      swap1\n      pop\n        /* \"#utility.yul\":139:235   */\n      swap2\n      swap1\n      pop\n      jump\t// out\n        /* \"#utility.yul\":241:359   */\n    tag_37:\n        /* \"#utility.yul\":328:352   */\n      tag_60\n        /* \"#utility.yul\":346:351   */\n      dup2\n        /* \"#utility.yul\":328:352   */\n      tag_36\n      jump\t// in\n    tag_60:\n        /* \"#utility.yul\":323:326   */\n      dup3\n        /* \"#utility.yul\":316:353   */\n      mstore\n        /* \"#utility.yul\":241:359   */\n      pop\n      pop\n      jump\t// out\n        /* \"#utility.yul\":365:587   */\n    tag_12:\n        /* \"#utility.yul\":458:462   */\n      0x00\n        /* \"#utility.yul\":496:498   */\n      0x20\n        /* \"#utility.yul\":485:494   */\n      dup3\n        /* \"#utility.yul\":481:499   */\n      add\n        /* \"#utility.yul\":473:499   */\n      swap1\n      pop\n        /* \"#utility.yul\":509:580   */\n      tag_62\n        /* \"#utility.yul\":577:578   */\n      0x00\n        /* \"#utility.yul\":566:575   */\n      dup4\n        /* \"#utility.yul\":562:579   */\n      add\n        /* \"#utility.yul\":553:559   */\n      dup5\n        /* \"#utility.yul\":509:580   */\n      tag_37\n      jump\t// in\n    tag_62:\n        /* \"#utility.yul\":365:587   */\n      swap3\n      swap2\n      pop\n      pop\n      jump\t// out\n        /* \"#utility.yul\":674:791   */\n    tag_39:\n        /* \"#utility.yul\":783:784   */\n      0x00\n        /* \"#utility.yul\":780:781   */\n      dup1\n        /* \"#utility.yul\":773:785   */\n      revert\n        /* \"#utility.yul\":920:1024   */\n    tag_41:\n        /* \"#utility.yul\":965:972   */\n      0x00\n        /* \"#utility.yul\":994:1018   */\n      tag_67\n        /* \"#utility.yul\":1012:1017   */\n      dup3\n        /* \"#utility.yul\":994:1018   */\n      tag_35\n      jump\t// in\n    tag_67:\n        /* \"#utility.yul\":983:1018   */\n      swap1\n      pop\n        /* \"#utility.yul\":920:1024   */\n      swap2\n      swap1\n      pop\n      jump\t// out\n        /* \"#utility.yul\":1030:1168   */\n    tag_42:\n        /* \"#utility.yul\":1111:1143   */\n      tag_69\n        /* \"#utility.yul\":1137:1142   */\n      dup2\n        /* \"#utility.yul\":1111:1143   */\n      tag_41\n      jump\t// in\n    tag_69:\n        /* \"#utility.yul\":1104:1109   */\n      dup2\n        /* \"#utility.yul\":1101:1144   */\n      eq\n        /* \"#utility.yul\":1091:1162   */\n      tag_70\n      jumpi\n        /* \"#utility.yul\":1158:1159   */\n      0x00\n        /* \"#utility.yul\":1155:1156   */\n      dup1\n        /* \"#utility.yul\":1148:1160   */\n      revert\n        /* \"#utility.yul\":1091:1162   */\n    tag_70:\n        /* \"#utility.yul\":1030:1168   */\n      pop\n      jump\t// out\n        /* \"#utility.yul\":1174:1329   */\n    tag_43:\n        /* \"#utility.yul\":1228:1233   */\n      0x00\n        /* \"#utility.yul\":1266:1272   */\n      dup2\n        /* \"#utility.yul\":1253:1273   */\n      calldataload\n        /* \"#utility.yul\":1244:1273   */\n      swap1\n      pop\n        /* \"#utility.yul\":1282:1323   */\n      tag_72\n        /* \"#utility.yul\":1317:1322   */\n      dup2\n        /* \"#utility.yul\":1282:1323   */\n      tag_42\n      jump\t// in\n    tag_72:\n        /* \"#utility.yul\":1174:1329   */\n      swap3\n      swap2\n      pop\n      pop\n      jump\t// out\n        /* \"#utility.yul\":1335:1412   */\n    tag_44:\n        /* \"#utility.yul\":1372:1379   */\n      0x00\n        /* \"#utility.yul\":1401:1406   */\n      dup2\n        /* \"#utility.yul\":1390:1406   */\n      swap1\n      pop\n        /* \"#utility.yul\":1335:1412   */\n      swap2\n      swap1\n      pop\n      jump\t// out\n        /* \"#utility.yul\":1418:1540   */\n    tag_45:\n        /* \"#utility.yul\":1491:1515   */\n      tag_75\n        /* \"#utility.yul\":1509:1514   */\n      dup2\n        /* \"#utility.yul\":1491:1515   */\n      tag_44\n      jump\t// in\n    tag_75:\n        /* \"#utility.yul\":1484:1489   */\n      dup2\n        /* \"#utility.yul\":1481:1516   */\n      eq\n        /* \"#utility.yul\":1471:1534   */\n      tag_76\n      jumpi\n        /* \"#utility.yul\":1530:1531   */\n      0x00\n        /* \"#utility.yul\":1527:1528   */\n      dup1\n        /* \"#utility.yul\":1520:1532   */\n      revert\n        /* \"#utility.yul\":1471:1534   */\n    tag_76:\n        /* \"#utility.yul\":1418:1540   */\n      pop\n      jump\t// out\n        /* \"#utility.yul\":1546:1685   */\n    tag_46:\n        /* \"#utility.yul\":1592:1597   */\n      0x00\n        /* \"#utility.yul\":1630:1636   */\n      dup2\n        /* \"#utility.yul\":1617:1637   */\n      calldataload\n        /* \"#utility.yul\":1608:1637   */\n      swap1\n      pop\n        /* \"#utility.yul\":1646:1679   */\n      tag_78\n        /* \"#utility.yul\":1673:1678   */\n      dup2\n        /* \"#utility.yul\":1646:1679   */\n      tag_45\n      jump\t// in\n    tag_78:\n        /* \"#utility.yul\":1546:1685   */\n      swap3\n      swap2\n      pop\n      pop\n      jump\t// out\n        /* \"#utility.yul\":1691:2181   */\n    tag_16:\n        /* \"#utility.yul\":1767:1773   */\n      0x00\n        /* \"#utility.yul\":1775:1781   */\n      dup1\n        /* \"#utility.yul\":1824:1826   */\n      0x40\n        /* \"#utility.yul\":1812:1821   */\n      dup4\n        /* \"#utility.yul\":1803:1810   */\n      dup6\n        /* \"#utility.yul\":1799:1822   */\n      sub\n        /* \"#utility.yul\":1795:1827   */\n      slt\n        /* \"#utility.yul\":1792:1911   */\n      iszero\n      tag_80\n      jumpi\n        /* \"#utility.yul\":1830:1909   */\n      tag_81\n      tag_39\n      jump\t// in\n    tag_81:\n        /* \"#utility.yul\":1792:1911   */\n    tag_80:\n        /* \"#utility.yul\":1950:1951   */\n      0x00\n        /* \"#utility.yul\":1975:2036   */\n      tag_82\n        /* \"#utility.yul\":2028:2035   */\n      dup6\n        /* \"#utility.yul\":2019:2025   */\n      dup3\n        /* \"#utility.yul\":2008:2017   */\n      dup7\n        /* \"#utility.yul\":2004:2026   */\n      add\n        /* \"#utility.yul\":1975:2036   */\n      tag_43\n      jump\t// in\n    tag_82:\n        /* \"#utility.yul\":1965:2036   */\n      swap3\n      pop\n        /* \"#utility.yul\":1921:2046   */\n      pop\n        /* \"#utility.yul\":2085:2087   */\n      0x20\n        /* \"#utility.yul\":2111:2164   */\n      tag_83\n        /* \"#utility.yul\":2156:2163   */\n      dup6\n        /* \"#utility.yul\":2147:2153   */\n      dup3\n        /* \"#utility.yul\":2136:2145   */\n      dup7\n        /* \"#utility.yul\":2132:2154   */\n      add\n        /* \"#utility.yul\":2111:2164   */\n      tag_46\n      jump\t// in\n    tag_83:\n        /* \"#utility.yul\":2101:2164   */\n      swap2\n      pop\n        /* \"#utility.yul\":2056:2174   */\n      pop\n        /* \"#utility.yul\":1691:2181   */\n      swap3\n      pop\n      swap3\n      swap1\n      pop\n      jump\t// out\n        /* \"#utility.yul\":2187:2309   */\n    tag_47:\n        /* \"#utility.yul\":2260:2284   */\n      tag_85\n        /* \"#utility.yul\":2278:2283   */\n      dup2\n        /* \"#utility.yul\":2260:2284   */\n      tag_36\n      jump\t// in\n    tag_85:\n        /* \"#utility.yul\":2253:2258   */\n      dup2\n        /* \"#utility.yul\":2250:2285   */\n      eq\n        /* \"#utility.yul\":2240:2303   */\n      tag_86\n      jumpi\n        /* \"#utility.yul\":2299:2300   */\n      0x00\n        /* \"#utility.yul\":2296:2297   */\n      dup1\n        /* \"#utility.yul\":2289:2301   */\n      revert\n        /* \"#utility.yul\":2240:2303   */\n    tag_86:\n        /* \"#utility.yul\":2187:2309   */\n      pop\n      jump\t// out\n        /* \"#utility.yul\":2315:2454   */\n    tag_48:\n        /* \"#utility.yul\":2361:2366   */\n      0x00\n        /* \"#utility.yul\":2399:2405   */\n      dup2\n        /* \"#utility.yul\":2386:2406   */\n      calldataload\n        /* \"#utility.yul\":2377:2406   */\n      swap1\n      pop\n        /* \"#utility.yul\":2415:2448   */\n      tag_88\n        /* \"#utility.yul\":2442:2447   */\n      dup2\n        /* \"#utility.yul\":2415:2448   */\n      tag_47\n      jump\t// in\n    tag_88:\n        /* \"#utility.yul\":2315:2454   */\n      swap3\n      swap2\n      pop\n      pop\n      jump\t// out\n        /* \"#utility.yul\":2460:2789   */\n    tag_21:\n        /* \"#utility.yul\":2519:2525   */\n      0x00\n        /* \"#utility.yul\":2568:2570   */\n      0x20\n        /* \"#utility.yul\":2556:2565   */\n      dup3\n        /* \"#utility.yul\":2547:2554   */\n      dup5\n        /* \"#utility.yul\":2543:2566   */\n      sub\n        /* \"#utility.yul\":2539:2571   */\n      slt\n        /* \"#utility.yul\":2536:2655   */\n      iszero\n      tag_90\n      jumpi\n        /* \"#utility.yul\":2574:2653   */\n      tag_91\n      tag_39\n      jump\t// in\n    tag_91:\n        /* \"#utility.yul\":2536:2655   */\n    tag_90:\n        /* \"#utility.yul\":2694:2695   */\n      0x00\n        /* \"#utility.yul\":2719:2772   */\n      tag_92\n        /* \"#utility.yul\":2764:2771   */\n      dup5\n        /* \"#utility.yul\":2755:2761   */\n      dup3\n        /* \"#utility.yul\":2744:2753   */\n      dup6\n        /* \"#utility.yul\":2740:2762   */\n      add\n        /* \"#utility.yul\":2719:2772   */\n      tag_48\n      jump\t// in\n    tag_92:\n        /* \"#utility.yul\":2709:2772   */\n      swap2\n      pop\n        /* \"#utility.yul\":2665:2782   */\n      pop\n        /* \"#utility.yul\":2460:2789   */\n      swap3\n      swap2\n      pop\n      pop\n      jump\t// out\n        /* \"#utility.yul\":2795:2913   */\n    tag_49:\n        /* \"#utility.yul\":2882:2906   */\n      tag_94\n        /* \"#utility.yul\":2900:2905   */\n      dup2\n        /* \"#utility.yul\":2882:2906   */\n      tag_44\n      jump\t// in\n    tag_94:\n        /* \"#utility.yul\":2877:2880   */\n      dup3\n        /* \"#utility.yul\":2870:2907   */\n      mstore\n        /* \"#utility.yul\":2795:2913   */\n      pop\n      pop\n      jump\t// out\n        /* \"#utility.yul\":2919:3141   */\n    tag_24:\n        /* \"#utility.yul\":3012:3016   */\n      0x00\n        /* \"#utility.yul\":3050:3052   */\n      0x20\n        /* \"#utility.yul\":3039:3048   */\n      dup3\n        /* \"#utility.yul\":3035:3053   */\n      add\n        /* \"#utility.yul\":3027:3053   */\n      swap1\n      pop\n        /* \"#utility.yul\":3063:3134   */\n      tag_96\n        /* \"#utility.yul\":3131:3132   */\n      0x00\n        /* \"#utility.yul\":3120:3129   */\n      dup4\n        /* \"#utility.yul\":3116:3133   */\n      add\n        /* \"#utility.yul\":3107:3113   */\n      dup5\n        /* \"#utility.yul\":3063:3134   */\n      tag_49\n      jump\t// in\n    tag_96:\n        /* \"#utility.yul\":2919:3141   */\n      swap3\n      swap2\n      pop\n      pop\n      jump\t// out\n        /* \"#utility.yul\":3147:3316   */\n    tag_50:\n        /* \"#utility.yul\":3231:3242   */\n      0x00\n        /* \"#utility.yul\":3265:3271   */\n      dup3\n        /* \"#utility.yul\":3260:3263   */\n      dup3\n        /* \"#utility.yul\":3253:3272   */\n      mstore\n        /* \"#utility.yul\":3305:3309   */\n      0x20\n        /* \"#utility.yul\":3300:3303   */\n      dup3\n        /* \"#utility.yul\":3296:3310   */\n      add\n        /* \"#utility.yul\":3281:3310   */\n      swap1\n      pop\n        /* \"#utility.yul\":3147:3316   */\n      swap3\n      swap2\n      pop\n      pop\n      jump\t// out\n        /* \"#utility.yul\":3322:3491   */\n    tag_51:\n        /* \"#utility.yul\":3462:3483   */\n      0x5f616d6f756e74206d757374206265203e203000000000000000000000000000\n        /* \"#utility.yul\":3458:3459   */\n      0x00\n        /* \"#utility.yul\":3450:3456   */\n      dup3\n        /* \"#utility.yul\":3446:3460   */\n      add\n        /* \"#utility.yul\":3439:3484   */\n      mstore\n        /* \"#utility.yul\":3322:3491   */\n      pop\n      jump\t// out\n        /* \"#utility.yul\":3497:3863   */\n    tag_52:\n        /* \"#utility.yul\":3639:3642   */\n      0x00\n        /* \"#utility.yul\":3660:3727   */\n      tag_100\n        /* \"#utility.yul\":3724:3726   */\n      0x13\n        /* \"#utility.yul\":3719:3722   */\n      dup4\n        /* \"#utility.yul\":3660:3727   */\n      tag_50\n      jump\t// in\n    tag_100:\n        /* \"#utility.yul\":3653:3727   */\n      swap2\n      pop\n        /* \"#utility.yul\":3736:3829   */\n      tag_101\n        /* \"#utility.yul\":3825:3828   */\n      dup3\n        /* \"#utility.yul\":3736:3829   */\n      tag_51\n      jump\t// in\n    tag_101:\n        /* \"#utility.yul\":3854:3856   */\n      0x20\n        /* \"#utility.yul\":3849:3852   */\n      dup3\n        /* \"#utility.yul\":3845:3857   */\n      add\n        /* \"#utility.yul\":3838:3857   */\n      swap1\n      pop\n        /* \"#utility.yul\":3497:3863   */\n      swap2\n      swap1\n      pop\n      jump\t// out\n        /* \"#utility.yul\":3869:4288   */\n    tag_29:\n        /* \"#utility.yul\":4035:4039   */\n      0x00\n        /* \"#utility.yul\":4073:4075   */\n      0x20\n        /* \"#utility.yul\":4062:4071   */\n      dup3\n        /* \"#utility.yul\":4058:4076   */\n      add\n        /* \"#utility.yul\":4050:4076   */\n      swap1\n      pop\n        /* \"#utility.yul\":4122:4131   */\n      dup2\n        /* \"#utility.yul\":4116:4120   */\n      dup2\n        /* \"#utility.yul\":4112:4132   */\n      sub\n        /* \"#utility.yul\":4108:4109   */\n      0x00\n        /* \"#utility.yul\":4097:4106   */\n      dup4\n        /* \"#utility.yul\":4093:4110   */\n      add\n        /* \"#utility.yul\":4086:4133   */\n      mstore\n        /* \"#utility.yul\":4150:4281   */\n      tag_103\n        /* \"#utility.yul\":4276:4280   */\n      dup2\n        /* \"#utility.yul\":4150:4281   */\n      tag_52\n      jump\t// in\n    tag_103:\n        /* \"#utility.yul\":4142:4281   */\n      swap1\n      pop\n        /* \"#utility.yul\":3869:4288   */\n      swap2\n      swap1\n      pop\n      jump\t// out\n        /* \"#utility.yul\":4294:4469   */\n    tag_53:\n        /* \"#utility.yul\":4434:4461   */\n      0x746f206d7573742062652061207265616c206164647265737300000000000000\n        /* \"#utility.yul\":4430:4431   */\n      0x00\n        /* \"#utility.yul\":4422:4428   */\n      dup3\n        /* \"#utility.yul\":4418:4432   */\n      add\n        /* \"#utility.yul\":4411:4462   */\n      mstore\n        /* \"#utility.yul\":4294:4469   */\n      pop\n      jump\t// out\n        /* \"#utility.yul\":4475:4841   */\n    tag_54:\n        /* \"#utility.yul\":4617:4620   */\n      0x00\n        /* \"#utility.yul\":4638:4705   */\n      tag_106\n        /* \"#utility.yul\":4702:4704   */\n      0x19\n        /* \"#utility.yul\":4697:4700   */\n      dup4\n        /* \"#utility.yul\":4638:4705   */\n      tag_50\n      jump\t// in\n    tag_106:\n        /* \"#utility.yul\":4631:4705   */\n      swap2\n      pop\n        /* \"#utility.yul\":4714:4807   */\n      tag_107\n        /* \"#utility.yul\":4803:4806   */\n      dup3\n        /* \"#utility.yul\":4714:4807   */\n      tag_53\n      jump\t// in\n    tag_107:\n        /* \"#utility.yul\":4832:4834   */\n      0x20\n        /* \"#utility.yul\":4827:4830   */\n      dup3\n        /* \"#utility.yul\":4823:4835   */\n      add\n        /* \"#utility.yul\":4816:4835   */\n      swap1\n      pop\n        /* \"#utility.yul\":4475:4841   */\n      swap2\n      swap1\n      pop\n      jump\t// out\n        /* \"#utility.yul\":4847:5266   */\n    tag_32:\n        /* \"#utility.yul\":5013:5017   */\n      0x00\n        /* \"#utility.yul\":5051:5053   */\n      0x20\n        /* \"#utility.yul\":5040:5049   */\n      dup3\n        /* \"#utility.yul\":5036:5054   */\n      add\n        /* \"#utility.yul\":5028:5054   */\n      swap1\n      pop\n        /* \"#utility.yul\":5100:5109   */\n      dup2\n        /* \"#utility.yul\":5094:5098   */\n      dup2\n        /* \"#utility.yul\":5090:5110   */\n      sub\n        /* \"#utility.yul\":5086:5087   */\n      0x00\n        /* \"#utility.yul\":5075:5084   */\n      dup4\n        /* \"#utility.yul\":5071:5088   */\n      add\n        /* \"#utility.yul\":5064:5111   */\n      mstore\n        /* \"#utility.yul\":5128:5259   */\n      tag_109\n        /* \"#utility.yul\":5254:5258   */\n      dup2\n        /* \"#utility.yul\":5128:5259   */\n      tag_54\n      jump\t// in\n    tag_109:\n        /* \"#utility.yul\":5120:5259   */\n      swap1\n      pop\n        /* \"#utility.yul\":4847:5266   */\n      swap2\n      swap1\n      pop\n      jump\t// out\n\n    auxdata: 0xa264697066735822122062a8c1fb5f200df170a6bd5e5128cc86148ee53dc478a9ea21242790e9b6fa9264736f6c63430008180033\n}\n",
				"bytecode": {
					"linkReferences": {},
					"object": "608060405234801561000f575f80fd5b50335f806101000a81548173ffffffffffffffffffffffffffffffffffffffff021916908373ffffffffffffffffffffffffffffffffffffffff1602179055506104e98061005c5f395ff3fe60806040526004361061003e575f3560e01c80631b9265b8146100425780638da5cb5b1461004c578063cc6dbc2714610076578063e2982c211461009e575b5f80fd5b61004a6100da565b005b348015610057575f80fd5b5061006061011e565b60405161006d919061028d565b60405180910390f35b348015610081575f80fd5b5061009c60048036038101906100979190610318565b610141565b005b3480156100a9575f80fd5b506100c460048036038101906100bf9190610380565b610239565b6040516100d191906103ba565b60405180910390f35b3460015f3373ffffffffffffffffffffffffffffffffffffffff1673ffffffffffffffffffffffffffffffffffffffff1681526020019081526020015f2081905550565b5f8054906101000a900473ffffffffffffffffffffffffffffffffffffffff1681565b5f8111610183576040517f08c379a000000000000000000000000000000000000000000000000000000000815260040161017a9061042d565b60405180910390fd5b5f73ffffffffffffffffffffffffffffffffffffffff168273ffffffffffffffffffffffffffffffffffffffff16036101f1576040517f08c379a00000000000000000000000000000000000000000000000000000000081526004016101e890610495565b60405180910390fd5b8173ffffffffffffffffffffffffffffffffffffffff166108fc8290811502906040515f60405180830381858888f19350505050158015610234573d5f803e3d5ffd5b505050565b6001602052805f5260405f205f915090505481565b5f73ffffffffffffffffffffffffffffffffffffffff82169050919050565b5f6102778261024e565b9050919050565b6102878161026d565b82525050565b5f6020820190506102a05f83018461027e565b92915050565b5f80fd5b5f6102b48261024e565b9050919050565b6102c4816102aa565b81146102ce575f80fd5b50565b5f813590506102df816102bb565b92915050565b5f819050919050565b6102f7816102e5565b8114610301575f80fd5b50565b5f81359050610312816102ee565b92915050565b5f806040838503121561032e5761032d6102a6565b5b5f61033b858286016102d1565b925050602061034c85828601610304565b9150509250929050565b61035f8161026d565b8114610369575f80fd5b50565b5f8135905061037a81610356565b92915050565b5f60208284031215610395576103946102a6565b5b5f6103a28482850161036c565b91505092915050565b6103b4816102e5565b82525050565b5f6020820190506103cd5f8301846103ab565b92915050565b5f82825260208201905092915050565b7f5f616d6f756e74206d757374206265203e2030000000000000000000000000005f82015250565b5f6104176013836103d3565b9150610422826103e3565b602082019050919050565b5f6020820190508181035f8301526104448161040b565b9050919050565b7f746f206d7573742062652061207265616c2061646472657373000000000000005f82015250565b5f61047f6019836103d3565b915061048a8261044b565b602082019050919050565b5f6020820190508181035f8301526104ac81610473565b905091905056fea264697066735822122062a8c1fb5f200df170a6bd5e5128cc86148ee53dc478a9ea21242790e9b6fa9264736f6c63430008180033",
					"opcodes": "PUSH1 0x80 PUSH1 0x40 MSTORE CALLVALUE DUP1 ISZERO PUSH2 0xF JUMPI PUSH0 DUP1 REVERT JUMPDEST POP CALLER PUSH0 DUP1 PUSH2 0x100 EXP DUP2 SLOAD DUP2 PUSH20 0xFFFFFFFFFFFFFFFFFFFFFFFFFFFFFFFFFFFFFFFF MUL NOT AND SWAP1 DUP4 PUSH20 0xFFFFFFFFFFFFFFFFFFFFFFFFFFFFFFFFFFFFFFFF AND MUL OR SWAP1 SSTORE POP PUSH2 0x4E9 DUP1 PUSH2 0x5C PUSH0 CODECOPY PUSH0 RETURN INVALID PUSH1 0x80 PUSH1 0x40 MSTORE PUSH1 0x4 CALLDATASIZE LT PUSH2 0x3E JUMPI PUSH0 CALLDATALOAD PUSH1 0xE0 SHR DUP1 PUSH4 0x1B9265B8 EQ PUSH2 0x42 JUMPI DUP1 PUSH4 0x8DA5CB5B EQ PUSH2 0x4C JUMPI DUP1 PUSH4 0xCC6DBC27 EQ PUSH2 0x76 JUMPI DUP1 PUSH4 0xE2982C21 EQ PUSH2 0x9E JUMPI JUMPDEST PUSH0 DUP1 REVERT JUMPDEST PUSH2 0x4A PUSH2 0xDA JUMP JUMPDEST STOP JUMPDEST CALLVALUE DUP1 ISZERO PUSH2 0x57 JUMPI PUSH0 DUP1 REVERT JUMPDEST POP PUSH2 0x60 PUSH2 0x11E JUMP JUMPDEST PUSH1 0x40 MLOAD PUSH2 0x6D SWAP2 SWAP1 PUSH2 0x28D JUMP JUMPDEST PUSH1 0x40 MLOAD DUP1 SWAP2 SUB SWAP1 RETURN JUMPDEST CALLVALUE DUP1 ISZERO PUSH2 0x81 JUMPI PUSH0 DUP1 REVERT JUMPDEST POP PUSH2 0x9C PUSH1 0x4 DUP1 CALLDATASIZE SUB DUP2 ADD SWAP1 PUSH2 0x97 SWAP2 SWAP1 PUSH2 0x318 JUMP JUMPDEST PUSH2 0x141 JUMP JUMPDEST STOP JUMPDEST CALLVALUE DUP1 ISZERO PUSH2 0xA9 JUMPI PUSH0 DUP1 REVERT JUMPDEST POP PUSH2 0xC4 PUSH1 0x4 DUP1 CALLDATASIZE SUB DUP2 ADD SWAP1 PUSH2 0xBF SWAP2 SWAP1 PUSH2 0x380 JUMP JUMPDEST PUSH2 0x239 JUMP JUMPDEST PUSH1 0x40 MLOAD PUSH2 0xD1 SWAP2 SWAP1 PUSH2 0x3BA JUMP JUMPDEST PUSH1 0x40 MLOAD DUP1 SWAP2 SUB SWAP1 RETURN JUMPDEST CALLVALUE PUSH1 0x1 PUSH0 CALLER PUSH20 0xFFFFFFFFFFFFFFFFFFFFFFFFFFFFFFFFFFFFFFFF AND PUSH20 0xFFFFFFFFFFFFFFFFFFFFFFFFFFFFFFFFFFFFFFFF AND DUP2 MSTORE PUSH1 0x20 ADD SWAP1 DUP2 MSTORE PUSH1 0x20 ADD PUSH0 KECCAK256 DUP2 SWAP1 SSTORE POP JUMP JUMPDEST PUSH0 DUP1 SLOAD SWAP1 PUSH2 0x100 EXP SWAP1 DIV PUSH20 0xFFFFFFFFFFFFFFFFFFFFFFFFFFFFFFFFFFFFFFFF AND DUP2 JUMP JUMPDEST PUSH0 DUP2 GT PUSH2 0x183 JUMPI PUSH1 0x40 MLOAD PUSH32 0x8C379A000000000000000000000000000000000000000000000000000000000 DUP2 MSTORE PUSH1 0x4 ADD PUSH2 0x17A SWAP1 PUSH2 0x42D JUMP JUMPDEST PUSH1 0x40 MLOAD DUP1 SWAP2 SUB SWAP1 REVERT JUMPDEST PUSH0 PUSH20 0xFFFFFFFFFFFFFFFFFFFFFFFFFFFFFFFFFFFFFFFF AND DUP3 PUSH20 0xFFFFFFFFFFFFFFFFFFFFFFFFFFFFFFFFFFFFFFFF AND SUB PUSH2 0x1F1 JUMPI PUSH1 0x40 MLOAD PUSH32 0x8C379A000000000000000000000000000000000000000000000000000000000 DUP2 MSTORE PUSH1 0x4 ADD PUSH2 0x1E8 SWAP1 PUSH2 0x495 JUMP JUMPDEST PUSH1 0x40 MLOAD DUP1 SWAP2 SUB SWAP1 REVERT JUMPDEST DUP2 PUSH20 0xFFFFFFFFFFFFFFFFFFFFFFFFFFFFFFFFFFFFFFFF AND PUSH2 0x8FC DUP3 SWAP1 DUP2 ISZERO MUL SWAP1 PUSH1 0x40 MLOAD PUSH0 PUSH1 0x40 MLOAD DUP1 DUP4 SUB DUP2 DUP6 DUP9 DUP9 CALL SWAP4 POP POP POP POP ISZERO DUP1 ISZERO PUSH2 0x234 JUMPI RETURNDATASIZE PUSH0 DUP1 RETURNDATACOPY RETURNDATASIZE PUSH0 REVERT JUMPDEST POP POP POP JUMP JUMPDEST PUSH1 0x1 PUSH1 0x20 MSTORE DUP1 PUSH0 MSTORE PUSH1 0x40 PUSH0 KECCAK256 PUSH0 SWAP2 POP SWAP1 POP SLOAD DUP2 JUMP JUMPDEST PUSH0 PUSH20 0xFFFFFFFFFFFFFFFFFFFFFFFFFFFFFFFFFFFFFFFF DUP3 AND SWAP1 POP SWAP2 SWAP1 POP JUMP JUMPDEST PUSH0 PUSH2 0x277 DUP3 PUSH2 0x24E JUMP JUMPDEST SWAP1 POP SWAP2 SWAP1 POP JUMP JUMPDEST PUSH2 0x287 DUP2 PUSH2 0x26D JUMP JUMPDEST DUP3 MSTORE POP POP JUMP JUMPDEST PUSH0 PUSH1 0x20 DUP3 ADD SWAP1 POP PUSH2 0x2A0 PUSH0 DUP4 ADD DUP5 PUSH2 0x27E JUMP JUMPDEST SWAP3 SWAP2 POP POP JUMP JUMPDEST PUSH0 DUP1 REVERT JUMPDEST PUSH0 PUSH2 0x2B4 DUP3 PUSH2 0x24E JUMP JUMPDEST SWAP1 POP SWAP2 SWAP1 POP JUMP JUMPDEST PUSH2 0x2C4 DUP2 PUSH2 0x2AA JUMP JUMPDEST DUP2 EQ PUSH2 0x2CE JUMPI PUSH0 DUP1 REVERT JUMPDEST POP JUMP JUMPDEST PUSH0 DUP2 CALLDATALOAD SWAP1 POP PUSH2 0x2DF DUP2 PUSH2 0x2BB JUMP JUMPDEST SWAP3 SWAP2 POP POP JUMP JUMPDEST PUSH0 DUP2 SWAP1 POP SWAP2 SWAP1 POP JUMP JUMPDEST PUSH2 0x2F7 DUP2 PUSH2 0x2E5 JUMP JUMPDEST DUP2 EQ PUSH2 0x301 JUMPI PUSH0 DUP1 REVERT JUMPDEST POP JUMP JUMPDEST PUSH0 DUP2 CALLDATALOAD SWAP1 POP PUSH2 0x312 DUP2 PUSH2 0x2EE JUMP JUMPDEST SWAP3 SWAP2 POP POP JUMP JUMPDEST PUSH0 DUP1 PUSH1 0x40 DUP4 DUP6 SUB SLT ISZERO PUSH2 0x32E JUMPI PUSH2 0x32D PUSH2 0x2A6 JUMP JUMPDEST JUMPDEST PUSH0 PUSH2 0x33B DUP6 DUP3 DUP7 ADD PUSH2 0x2D1 JUMP JUMPDEST SWAP3 POP POP PUSH1 0x20 PUSH2 0x34C DUP6 DUP3 DUP7 ADD PUSH2 0x304 JUMP JUMPDEST SWAP2 POP POP SWAP3 POP SWAP3 SWAP1 POP JUMP JUMPDEST PUSH2 0x35F DUP2 PUSH2 0x26D JUMP JUMPDEST DUP2 EQ PUSH2 0x369 JUMPI PUSH0 DUP1 REVERT JUMPDEST POP JUMP JUMPDEST PUSH0 DUP2 CALLDATALOAD SWAP1 POP PUSH2 0x37A DUP2 PUSH2 0x356 JUMP JUMPDEST SWAP3 SWAP2 POP POP JUMP JUMPDEST PUSH0 PUSH1 0x20 DUP3 DUP5 SUB SLT ISZERO PUSH2 0x395 JUMPI PUSH2 0x394 PUSH2 0x2A6 JUMP JUMPDEST JUMPDEST PUSH0 PUSH2 0x3A2 DUP5 DUP3 DUP6 ADD PUSH2 0x36C JUMP JUMPDEST SWAP2 POP POP SWAP3 SWAP2 POP POP JUMP JUMPDEST PUSH2 0x3B4 DUP2 PUSH2 0x2E5 JUMP JUMPDEST DUP3 MSTORE POP POP JUMP JUMPDEST PUSH0 PUSH1 0x20 DUP3 ADD SWAP1 POP PUSH2 0x3CD PUSH0 DUP4 ADD DUP5 PUSH2 0x3AB JUMP JUMPDEST SWAP3 SWAP2 POP POP JUMP JUMPDEST PUSH0 DUP3 DUP3 MSTORE PUSH1 0x20 DUP3 ADD SWAP1 POP SWAP3 SWAP2 POP POP JUMP JUMPDEST PUSH32 0x5F616D6F756E74206D757374206265203E203000000000000000000000000000 PUSH0 DUP3 ADD MSTORE POP JUMP JUMPDEST PUSH0 PUSH2 0x417 PUSH1 0x13 DUP4 PUSH2 0x3D3 JUMP JUMPDEST SWAP2 POP PUSH2 0x422 DUP3 PUSH2 0x3E3 JUMP JUMPDEST PUSH1 0x20 DUP3 ADD SWAP1 POP SWAP2 SWAP1 POP JUMP JUMPDEST PUSH0 PUSH1 0x20 DUP3 ADD SWAP1 POP DUP2 DUP2 SUB PUSH0 DUP4 ADD MSTORE PUSH2 0x444 DUP2 PUSH2 0x40B JUMP JUMPDEST SWAP1 POP SWAP2 SWAP1 POP JUMP JUMPDEST PUSH32 0x746F206D7573742062652061207265616C206164647265737300000000000000 PUSH0 DUP3 ADD MSTORE POP JUMP JUMPDEST PUSH0 PUSH2 0x47F PUSH1 0x19 DUP4 PUSH2 0x3D3 JUMP JUMPDEST SWAP2 POP PUSH2 0x48A DUP3 PUSH2 0x44B JUMP JUMPDEST PUSH1 0x20 DUP3 ADD SWAP1 POP SWAP2 SWAP1 POP JUMP JUMPDEST PUSH0 PUSH1 0x20 DUP3 ADD SWAP1 POP DUP2 DUP2 SUB PUSH0 DUP4 ADD MSTORE PUSH2 0x4AC DUP2 PUSH2 0x473 JUMP JUMPDEST SWAP1 POP SWAP2 SWAP1 POP JUMP INVALID LOG2 PUSH5 0x6970667358 0x22 SLT KECCAK256 PUSH3 0xA8C1FB PUSH0 KECCAK256 0xD CALL PUSH17 0xA6BD5E5128CC86148EE53DC478A9EA2124 0x27 SWAP1 0xE9 0xB6 STATICCALL SWAP3 PUSH5 0x736F6C6343 STOP ADDMOD XOR STOP CALLER "
				},
				"gasEstimates": {
					"creation": {
						"codeDepositCost": "251400",
						"executionCost": "24557",
						"totalCost": "275957"
					},
					"external": {
						"owner()": "2505",
						"pay()": "22297",
						"payments(address)": "2846",
						"withdrawAll(address,uint256)": "infinite"
					}
				},
				"methodIdentifiers": {
					"owner()": "8da5cb5b",
					"pay()": "1b9265b8",
					"payments(address)": "e2982c21",
					"withdrawAll(address,uint256)": "cc6dbc27"
				}
			},
			"storageLayout": {
				"storage": [
					{
						"astId": 3,
						"contract": "contracts/1_Storage.sol:FinanceControl",
						"label": "owner",
						"offset": 0,
						"slot": "0",
						"type": "t_address"
					},
					{
						"astId": 7,
						"contract": "contracts/1_Storage.sol:FinanceControl",
						"label": "payments",
						"offset": 0,
						"slot": "1",
						"type": "t_mapping(t_address,t_uint256)"
					}
				],
				"types": {
					"t_address": {
						"encoding": "inplace",
						"label": "address",
						"numberOfBytes": "20"
					},
					"t_mapping(t_address,t_uint256)": {
						"encoding": "mapping",
						"key": "t_address",
						"label": "mapping(address => uint256)",
						"numberOfBytes": "32",
						"value": "t_uint256"
					},
					"t_uint256": {
						"encoding": "inplace",
						"label": "uint256",
						"numberOfBytes": "32"
					}
				}
			},
			"userdoc": {
				"kind": "user",
				"methods": {},
				"version": 1
			}
		}
	}
}